{
    "abi": [
        {
            "type": "function",
            "name": "getMeta",
            "inputs": [],
            "outputs": [
                {
                    "name": "",
                    "type": "uint256",
                    "internalType": "uint256"
                },
                {
                    "name": "",
                    "type": "uint256",
                    "internalType": "uint256"
                }
            ],
            "stateMutability": "view"
        }
    ],
    "bytecode": {
        "object": "0x6080604052348015600f57600080fd5b50607c80601d6000396000f3fe6080604052348015600f57600080fd5b506004361060285760003560e01c8063a79af2ce14602d575b600080fd5b6040805142815243602082015281519081900390910190f3fea26469706673582212202c76d8081bf4b8745cf50463d5b4f48aadbd688456ec111406e9010a51d456ba64736f6c63430008150033",
        "linkReferences": {}
    },
    "methodIdentifiers": {
        "getMeta()": "a79af2ce"
    },
    "id": 22
}