{
  "abi": [
    {
      "inputs": [
        {
          "internalType": "uint256",
          "name": "x",
          "type": "uint256"
        },
        {
          "internalType": "uint256",
          "name": "y",
          "type": "uint256"
        }
      ],
      "name": "addAndSet",
      "outputs": [],
      "stateMutability": "nonpayable",
      "type": "function"
    },
    {
      "inputs": [],
      "name": "increment",
      "outputs": [],
      "stateMutability": "nonpayable",
      "type": "function"
    },
    {
      "inputs": [],
      "name": "number",
      "outputs": [
        {
          "internalType": "uint256",
          "name": "",
          "type": "uint256"
        }
      ],
      "stateMutability": "view",
      "type": "function"
    },
    {
      "inputs": [
        {
          "internalType": "uint256",
          "name": "newNumber",
          "type": "uint256"
        }
      ],
      "name": "setNumber",
      "outputs": [],
      "stateMutability": "nonpayable",
      "type": "function"
    }
  ],
  "bytecode": {
    "object": "0x608060405234801561001057600080fd5b5061017c806100206000396000f3fe608060405234801561001057600080fd5b506004361061004c5760003560e01c80633fb5c1cb146100515780637cdcaa84146100665780638381f58a14610079578063d09de08a14610094575b600080fd5b61006461005f3660046100c3565b600055565b005b6100646100743660046100dc565b61009c565b61008260005481565b60405190815260200160405180910390f35b6100646100ad565b6100a68183610114565b6000555050565b6000805490806100bc8361012d565b9190505550565b6000602082840312156100d557600080fd5b5035919050565b600080604083850312156100ef57600080fd5b50508035926020909101359150565b634e487b7160e01b600052601160045260246000fd5b80820180821115610127576101276100fe565b92915050565b60006001820161013f5761013f6100fe565b506001019056fea26469706673582212205402ed70f947cd13cd7c155ef8be5004ac17d97c50decfbac254e3b1e160ad8464736f6c63430008140033",
    "linkReferences": {}
  },
  "methodIdentifiers": {
    "addAndSet(uint256,uint256)": "7cdcaa84",
    "increment()": "d09de08a",
    "number()": "8381f58a",
    "setNumber(uint256)": "3fb5c1cb"
  },
  "id": 19
}