{"abi":[{"type":"receive","stateMutability":"payable"},{"type":"function","name":"increment","inputs":[{"name":"input","type":"uint256","internalType":"uint256"}],"outputs":[{"name":"","type":"uint256","internalType":"uint256"},{"name":"","type":"uint256","internalType":"uint256"}],"stateMutability":"nonpayable"},{"type":"function","name":"increment","inputs":[],"outputs":[{"name":"","type":"uint256","internalType":"uint256"}],"stateMutability":"nonpayable"},{"type":"function","name":"setInput","inputs":[{"name":"input","type":"tuple","internalType":"struct InputStruct","components":[{"name":"x","type":"uint256","internalType":"uint256"},{"name":"y","type":"uint256","internalType":"uint256"},{"name":"user","type":"address","internalType":"address"}]}],"outputs":[{"name":"","type":"address","internalType":"address"}],"stateMutability":"nonpayable"},{"type":"function","name":"user","inputs":[],"outputs":[{"name":"","type":"address","internalType":"address"}],"stateMutability":"view"},{"type":"function","name":"value","inputs":[],"outputs":[{"name":"","type":"uint256","internalType":"uint256"}],"stateMutability":"view"},{"type":"function","name":"x","inputs":[],"outputs":[{"name":"","type":"uint256","internalType":"uint256"}],"stateMutability":"view"},{"type":"function","name":"y","inputs":[],"outputs":[{"name":"","type":"uint256","internalType":"uint256"}],"stateMutability":"view"}],"bytecode":{"object":"0x608060405234801561001057600080fd5b506102bd806100206000396000f3fe6080604052600436106100745760003560e01c80637cf5dab01161004e5780637cf5dab0146100f7578063a56dfe4a1461012c578063d09de08a14610142578063fa6a38d21461015757600080fd5b80630c55699c146100805780633fa4f245146100a95780634f8632ba146100bf57600080fd5b3661007b57005b600080fd5b34801561008c57600080fd5b5061009660015481565b6040519081526020015b60405180910390f35b3480156100b557600080fd5b5061009660005481565b3480156100cb57600080fd5b506003546100df906001600160a01b031681565b6040516001600160a01b0390911681526020016100a0565b34801561010357600080fd5b506101176101123660046101ff565b610177565b604080519283526020830191909152016100a0565b34801561013857600080fd5b5061009660025481565b34801561014e57600080fd5b5061009661019a565b34801561016357600080fd5b506100df610172366004610218565b6101bb565b6000808260008082825461018b9190610230565b90915550506000549293915050565b600060016000808282546101ae9190610230565b9091555050600054919050565b8035600155602081013560025560006101da6060830160408401610257565b600380546001600160a01b0319166001600160a01b0392909216918217905592915050565b60006020828403121561021157600080fd5b5035919050565b60006060828403121561022a57600080fd5b50919050565b8082018082111561025157634e487b7160e01b600052601160045260246000fd5b92915050565b60006020828403121561026957600080fd5b81356001600160a01b038116811461028057600080fd5b939250505056fea264697066735822122083e1feedde47830a3d03d5bf1286016b620dedce5a3768f4901b99bd1f7f86a764736f6c63430008140033","linkReferences":{}},"methodIdentifiers":{"increment()":"d09de08a","increment(uint256)":"7cf5dab0","setInput((uint256,uint256,address))":"fa6a38d2","user()":"4f8632ba","value()":"3fa4f245","x()":"0c55699c","y()":"a56dfe4a"},"id":24}