{"abi":[{"type":"function","name":"in_and_out","inputs":[{"name":"value","type":"int256","internalType":"int256"}],"outputs":[{"name":"","type":"int256","internalType":"int256"}],"stateMutability":"pure"}],"bytecode":{"object":"0x608060405234801561000f575f80fd5b5061010f8061001d5f395ff3fe6080604052348015600e575f80fd5b50600436106026575f3560e01c80636ee2e03314602a575b5f80fd5b60406004803603810190603c9190608f565b6054565b604051604b919060c2565b60405180910390f35b5f819050919050565b5f80fd5b5f819050919050565b6071816061565b8114607a575f80fd5b50565b5f81359050608981606a565b92915050565b5f6020828403121560a15760a0605d565b5b5f60ac84828501607d565b91505092915050565b60bc816061565b82525050565b5f60208201905060d35f83018460b5565b9291505056fea2646970667358221220689ef493bdd4f6c5f20643b97ad191ce1462d8cd83851a0c0ce36898ea4ecacf64736f6c63430008150033","linkReferences":{}},"methodIdentifiers":{"in_and_out(int256)":"6ee2e033"},"id":0}